{
  "contractName": "PicsumWallet",
  "abi": [
    {
      "constant": false,
      "inputs": [],
      "name": "renounceOwnership",
      "outputs": [],
      "payable": false,
      "stateMutability": "nonpayable",
      "type": "function"
    },
    {
      "constant": true,
      "inputs": [],
      "name": "data",
      "outputs": [
        {
          "name": "",
          "type": "bytes"
        }
      ],
      "payable": false,
      "stateMutability": "view",
      "type": "function"
    },
    {
      "constant": true,
      "inputs": [],
      "name": "owner",
      "outputs": [
        {
          "name": "",
          "type": "address"
        }
      ],
      "payable": false,
      "stateMutability": "view",
      "type": "function"
    },
    {
      "constant": true,
      "inputs": [],
      "name": "nftToken",
      "outputs": [
        {
          "name": "",
          "type": "address"
        }
      ],
      "payable": false,
      "stateMutability": "view",
      "type": "function"
    },
    {
      "constant": false,
      "inputs": [
        {
          "name": "_newOwner",
          "type": "address"
        }
      ],
      "name": "transferOwnership",
      "outputs": [],
      "payable": false,
      "stateMutability": "nonpayable",
      "type": "function"
    },
    {
      "inputs": [
        {
          "name": "_nftToken",
          "type": "address"
        }
      ],
      "payable": false,
      "stateMutability": "nonpayable",
      "type": "constructor"
    },
    {
      "payable": true,
      "stateMutability": "payable",
      "type": "fallback"
    },
    {
      "anonymous": false,
      "inputs": [
        {
          "indexed": false,
          "name": "oldAddress",
          "type": "address"
        },
        {
          "indexed": false,
          "name": "newAddress",
          "type": "address"
        }
      ],
      "name": "TokenAddressUpdated",
      "type": "event"
    },
    {
      "anonymous": false,
      "inputs": [
        {
          "indexed": true,
          "name": "operator",
          "type": "address"
        },
        {
          "indexed": true,
          "name": "from",
          "type": "address"
        },
        {
          "indexed": true,
          "name": "tokenId",
          "type": "uint256"
        }
      ],
      "name": "ReceivedToken",
      "type": "event"
    },
    {
      "anonymous": false,
      "inputs": [
        {
          "indexed": true,
          "name": "previousOwner",
          "type": "address"
        }
      ],
      "name": "OwnershipRenounced",
      "type": "event"
    },
    {
      "anonymous": false,
      "inputs": [
        {
          "indexed": true,
          "name": "previousOwner",
          "type": "address"
        },
        {
          "indexed": true,
          "name": "newOwner",
          "type": "address"
        }
      ],
      "name": "OwnershipTransferred",
      "type": "event"
    },
    {
      "constant": false,
      "inputs": [
        {
          "name": "_newTokenAddress",
          "type": "address"
        }
      ],
      "name": "updateTokenAddress",
      "outputs": [
        {
          "name": "",
          "type": "bool"
        }
      ],
      "payable": false,
      "stateMutability": "nonpayable",
      "type": "function"
    },
    {
      "constant": false,
      "inputs": [
        {
          "name": "_operator",
          "type": "address"
        },
        {
          "name": "_from",
          "type": "address"
        },
        {
          "name": "_tokenId",
          "type": "uint256"
        },
        {
          "name": "_data",
          "type": "bytes"
        }
      ],
      "name": "onERC721Received",
      "outputs": [
        {
          "name": "",
          "type": "bytes4"
        }
      ],
      "payable": false,
      "stateMutability": "nonpayable",
      "type": "function"
    }
  ],
  "bytecode": "0x608060405234801561001057600080fd5b50604051602080610b0883398101806040528101908080519060200190929190505050336000806101000a81548173ffffffffffffffffffffffffffffffffffffffff021916908373ffffffffffffffffffffffffffffffffffffffff16021790555080600160006101000a81548173ffffffffffffffffffffffffffffffffffffffff021916908373ffffffffffffffffffffffffffffffffffffffff16021790555050610a44806100c46000396000f300608060405260043610610083576000357c0100000000000000000000000000000000000000000000000000000000900463ffffffff168063150b7a02146101065780636691461a1461020b578063715018a61461026657806373d4a13a1461027d5780638da5cb5b1461030d578063d06fcba814610364578063f2fde38b146103bb575b6000809054906101000a900473ffffffffffffffffffffffffffffffffffffffff1673ffffffffffffffffffffffffffffffffffffffff163373ffffffffffffffffffffffffffffffffffffffff161415156100de57600080fd5b600154366000803760008036600034855af13d6000803e80151561010157600080fd5b3d6000f35b34801561011257600080fd5b506101b7600480360381019080803573ffffffffffffffffffffffffffffffffffffffff169060200190929190803573ffffffffffffffffffffffffffffffffffffffff16906020019092919080359060200190929190803590602001908201803590602001908080601f01602080910402602001604051908101604052809392919081815260200183838082843782019150505050505091929192905050506103fe565b60405180827bffffffffffffffffffffffffffffffffffffffffffffffffffffffff19167bffffffffffffffffffffffffffffffffffffffffffffffffffffffff1916815260200191505060405180910390f35b34801561021757600080fd5b5061024c600480360381019080803573ffffffffffffffffffffffffffffffffffffffff1690602001909291905050506104a0565b604051808215151515815260200191505060405180910390f35b34801561027257600080fd5b5061027b610627565b005b34801561028957600080fd5b50610292610729565b6040518080602001828103825283818151815260200191508051906020019080838360005b838110156102d25780820151818401526020810190506102b7565b50505050905090810190601f1680156102ff5780820380516001836020036101000a031916815260200191505b509250505060405180910390f35b34801561031957600080fd5b506103226107c7565b604051808273ffffffffffffffffffffffffffffffffffffffff1673ffffffffffffffffffffffffffffffffffffffff16815260200191505060405180910390f35b34801561037057600080fd5b506103796107ec565b604051808273ffffffffffffffffffffffffffffffffffffffff1673ffffffffffffffffffffffffffffffffffffffff16815260200191505060405180910390f35b3480156103c757600080fd5b506103fc600480360381019080803573ffffffffffffffffffffffffffffffffffffffff169060200190929190505050610812565b005b60008160029080519060200190610416929190610973565b50828473ffffffffffffffffffffffffffffffffffffffff168673ffffffffffffffffffffffffffffffffffffffff167f8fb5966fa4703c29d268f90be396c14771e77d796bea76ca74eddb52e5b370ab60405160405180910390a463150b7a027c0100000000000000000000000000000000000000000000000000000000029050949350505050565b6000806000809054906101000a900473ffffffffffffffffffffffffffffffffffffffff1673ffffffffffffffffffffffffffffffffffffffff163373ffffffffffffffffffffffffffffffffffffffff161415156104fe57600080fd5b600160009054906101000a900473ffffffffffffffffffffffffffffffffffffffff16905082600160006101000a81548173ffffffffffffffffffffffffffffffffffffffff021916908373ffffffffffffffffffffffffffffffffffffffff1602179055507ffb9b24f1fe56bb402b23b11b0b134a4a23f2eaa65b67c417ece943919398136a81600160009054906101000a900473ffffffffffffffffffffffffffffffffffffffff16604051808373ffffffffffffffffffffffffffffffffffffffff1673ffffffffffffffffffffffffffffffffffffffff1681526020018273ffffffffffffffffffffffffffffffffffffffff1673ffffffffffffffffffffffffffffffffffffffff1681526020019250505060405180910390a16001915050919050565b6000809054906101000a900473ffffffffffffffffffffffffffffffffffffffff1673ffffffffffffffffffffffffffffffffffffffff163373ffffffffffffffffffffffffffffffffffffffff1614151561068257600080fd5b6000809054906101000a900473ffffffffffffffffffffffffffffffffffffffff1673ffffffffffffffffffffffffffffffffffffffff167ff8df31144d9c2f0f6b59d69b8b98abd5459d07f2742c4df920b25aae33c6482060405160405180910390a260008060006101000a81548173ffffffffffffffffffffffffffffffffffffffff021916908373ffffffffffffffffffffffffffffffffffffffff160217905550565b60028054600181600116156101000203166002900480601f0160208091040260200160405190810160405280929190818152602001828054600181600116156101000203166002900480156107bf5780601f10610794576101008083540402835291602001916107bf565b820191906000526020600020905b8154815290600101906020018083116107a257829003601f168201915b505050505081565b6000809054906101000a900473ffffffffffffffffffffffffffffffffffffffff1681565b600160009054906101000a900473ffffffffffffffffffffffffffffffffffffffff1681565b6000809054906101000a900473ffffffffffffffffffffffffffffffffffffffff1673ffffffffffffffffffffffffffffffffffffffff163373ffffffffffffffffffffffffffffffffffffffff1614151561086d57600080fd5b61087681610879565b50565b600073ffffffffffffffffffffffffffffffffffffffff168173ffffffffffffffffffffffffffffffffffffffff16141515156108b557600080fd5b8073ffffffffffffffffffffffffffffffffffffffff166000809054906101000a900473ffffffffffffffffffffffffffffffffffffffff1673ffffffffffffffffffffffffffffffffffffffff167f8be0079c531659141344cd1fd0a4f28419497f9722a3daafe3b4186f6b6457e060405160405180910390a3806000806101000a81548173ffffffffffffffffffffffffffffffffffffffff021916908373ffffffffffffffffffffffffffffffffffffffff16021790555050565b828054600181600116156101000203166002900490600052602060002090601f016020900481019282601f106109b457805160ff19168380011785556109e2565b828001600101855582156109e2579182015b828111156109e15782518255916020019190600101906109c6565b5b5090506109ef91906109f3565b5090565b610a1591905b80821115610a115760008160009055506001016109f9565b5090565b905600a165627a7a72305820d5397961b8f01a8904ba03b85ae9f05552173cd84c6fa1a2eacd2eaf389f138f0029",
  "source": "pragma solidity ^0.4.24;\n\nimport \"openzeppelin-solidity/contracts/token/ERC721/ERC721Receiver.sol\";\nimport \"openzeppelin-solidity/contracts/Ownership/Ownable.sol\";\n\n\ncontract PicsumWallet is ERC721Receiver, Ownable {\n  address public nftToken;\n  bytes public data;\n\n  event TokenAddressUpdated(\n    address oldAddress,\n    address newAddress\n  );\n\n  event ReceivedToken(\n    address indexed operator,\n    address indexed from,\n    uint256 indexed tokenId\n  );\n\n  constructor(\n    address _nftToken\n  )\n    public\n  {\n    nftToken = _nftToken;\n  }\n\n  function updateTokenAddress(\n    address _newTokenAddress\n  )\n    external\n    onlyOwner\n    returns (bool)\n  {\n    address _oldAddress = nftToken;\n    nftToken = _newTokenAddress;\n\n    emit TokenAddressUpdated(_oldAddress, nftToken);\n\n    return true;\n  }\n\n  /// @notice Handle the receipt of an NFT\n  /// @dev The ERC721 smart contract calls this function on the\n  /// recipient after a `transfer`. This function MAY throw to revert and reject the transfer. Return\n  /// of other than the magic value MUST result in the transaction being reverted.\n  /// @notice The contract address is always the message sender. \n  /// @param _operator The address which called `safeTransferFrom` function\n  /// @param _from The address which previously owned the token\n  /// @param _tokenId The NFT identifier which is being transferred\n  /// @param _data Additional data with no specified format\n  /// @return `bytes4(keccak256(\"onERC721Received(address,address,uint256,bytes)\"))`\n  /// unless throwing\n  function onERC721Received(\n    address _operator, \n    address _from, \n    uint256 _tokenId, \n    bytes _data\n  ) \n    public \n    returns(bytes4)\n  {\n    data = _data;\n\n    emit ReceivedToken(_operator, _from, _tokenId);\n    \n    return ERC721_RECEIVED;\n  }\n\n  // fallback function which can call any token functions that are needed\n  function()\n    external\n    payable\n    onlyOwner\n  {\n    assembly {\n      // load nfttoken from storage slot using *_slot suffix\n      let _nftToken := sload(nftToken_slot)\n\n      // calldatacopy(t, f, s)\n      calldatacopy(\n        0x0, // t = mem position to\n        0x0, // f = mem position from\n        calldatasize // s = size bytes\n      )\n\n      // call(g, a, v, in, insize, out, outsize)\n      let result := call(\n        gas, // g = gas\n        _nftToken, // a = address\n        callvalue, // equivalent to msg.value\n        0x0, // in = mem in  mem[in..(in+insize)\n        calldatasize, // insize = mem insize  mem[in..(in+insize)\n        0x0, // out = mem out  mem[out..(out+outsize)\n        0 // outsize = mem outsize  mem[out..(out+outsize)\n      )\n\n      returndatacopy(\n        0x0, // t = mem position to\n        0x0,  // f = mem position from\n        returndatasize // s = size bytes\n      )\n\n      // Check if the call was successful\n      if iszero(result) {\n        // Revert if call failed\n        revert(0, 0)\n      }\n        // Return if call succeeded\n        return(\n          0x0,\n          returndatasize\n        )\n    }\n  }\n}\n",
  "sourcePath": "/Users/tovarishfin/dev/personal/picsumToken/contracts/PicsumWallet.sol",
  "compiler": {
    "name": "solc",
    "version": "0.4.24+commit.e67f0147.Emscripten.clang"
  },
  "schemaVersion": "2.0.1",
  "updatedAt": "2018-08-08T20:25:14.593Z"
}