{
  "contractName": "PicsumToken",
  "abi": [
    {
      "constant": true,
      "inputs": [
        {
          "name": "_interfaceId",
          "type": "bytes4"
        }
      ],
      "name": "supportsInterface",
      "outputs": [
        {
          "name": "",
          "type": "bool"
        }
      ],
      "payable": false,
      "stateMutability": "view",
      "type": "function"
    },
    {
      "constant": true,
      "inputs": [],
      "name": "creator",
      "outputs": [
        {
          "name": "",
          "type": "address"
        }
      ],
      "payable": false,
      "stateMutability": "view",
      "type": "function"
    },
    {
      "constant": true,
      "inputs": [],
      "name": "name",
      "outputs": [
        {
          "name": "",
          "type": "string"
        }
      ],
      "payable": false,
      "stateMutability": "view",
      "type": "function"
    },
    {
      "constant": true,
      "inputs": [
        {
          "name": "_tokenId",
          "type": "uint256"
        }
      ],
      "name": "getApproved",
      "outputs": [
        {
          "name": "",
          "type": "address"
        }
      ],
      "payable": false,
      "stateMutability": "view",
      "type": "function"
    },
    {
      "constant": false,
      "inputs": [
        {
          "name": "_to",
          "type": "address"
        },
        {
          "name": "_tokenId",
          "type": "uint256"
        }
      ],
      "name": "approve",
      "outputs": [],
      "payable": false,
      "stateMutability": "nonpayable",
      "type": "function"
    },
    {
      "constant": true,
      "inputs": [],
      "name": "totalSupply",
      "outputs": [
        {
          "name": "",
          "type": "uint256"
        }
      ],
      "payable": false,
      "stateMutability": "view",
      "type": "function"
    },
    {
      "constant": true,
      "inputs": [],
      "name": "InterfaceId_ERC165",
      "outputs": [
        {
          "name": "",
          "type": "bytes4"
        }
      ],
      "payable": false,
      "stateMutability": "view",
      "type": "function"
    },
    {
      "constant": false,
      "inputs": [
        {
          "name": "_from",
          "type": "address"
        },
        {
          "name": "_to",
          "type": "address"
        },
        {
          "name": "_tokenId",
          "type": "uint256"
        }
      ],
      "name": "transferFrom",
      "outputs": [],
      "payable": false,
      "stateMutability": "nonpayable",
      "type": "function"
    },
    {
      "constant": true,
      "inputs": [
        {
          "name": "_owner",
          "type": "address"
        },
        {
          "name": "_index",
          "type": "uint256"
        }
      ],
      "name": "tokenOfOwnerByIndex",
      "outputs": [
        {
          "name": "",
          "type": "uint256"
        }
      ],
      "payable": false,
      "stateMutability": "view",
      "type": "function"
    },
    {
      "constant": false,
      "inputs": [
        {
          "name": "_from",
          "type": "address"
        },
        {
          "name": "_to",
          "type": "address"
        },
        {
          "name": "_tokenId",
          "type": "uint256"
        }
      ],
      "name": "safeTransferFrom",
      "outputs": [],
      "payable": false,
      "stateMutability": "nonpayable",
      "type": "function"
    },
    {
      "constant": true,
      "inputs": [
        {
          "name": "_tokenId",
          "type": "uint256"
        }
      ],
      "name": "exists",
      "outputs": [
        {
          "name": "",
          "type": "bool"
        }
      ],
      "payable": false,
      "stateMutability": "view",
      "type": "function"
    },
    {
      "constant": true,
      "inputs": [
        {
          "name": "_index",
          "type": "uint256"
        }
      ],
      "name": "tokenByIndex",
      "outputs": [
        {
          "name": "",
          "type": "uint256"
        }
      ],
      "payable": false,
      "stateMutability": "view",
      "type": "function"
    },
    {
      "constant": true,
      "inputs": [
        {
          "name": "_tokenId",
          "type": "uint256"
        }
      ],
      "name": "ownerOf",
      "outputs": [
        {
          "name": "",
          "type": "address"
        }
      ],
      "payable": false,
      "stateMutability": "view",
      "type": "function"
    },
    {
      "constant": true,
      "inputs": [
        {
          "name": "_owner",
          "type": "address"
        }
      ],
      "name": "balanceOf",
      "outputs": [
        {
          "name": "",
          "type": "uint256"
        }
      ],
      "payable": false,
      "stateMutability": "view",
      "type": "function"
    },
    {
      "constant": true,
      "inputs": [],
      "name": "symbol",
      "outputs": [
        {
          "name": "",
          "type": "string"
        }
      ],
      "payable": false,
      "stateMutability": "view",
      "type": "function"
    },
    {
      "constant": false,
      "inputs": [
        {
          "name": "_to",
          "type": "address"
        },
        {
          "name": "_approved",
          "type": "bool"
        }
      ],
      "name": "setApprovalForAll",
      "outputs": [],
      "payable": false,
      "stateMutability": "nonpayable",
      "type": "function"
    },
    {
      "constant": false,
      "inputs": [
        {
          "name": "_from",
          "type": "address"
        },
        {
          "name": "_to",
          "type": "address"
        },
        {
          "name": "_tokenId",
          "type": "uint256"
        },
        {
          "name": "_data",
          "type": "bytes"
        }
      ],
      "name": "safeTransferFrom",
      "outputs": [],
      "payable": false,
      "stateMutability": "nonpayable",
      "type": "function"
    },
    {
      "constant": true,
      "inputs": [
        {
          "name": "_tokenId",
          "type": "uint256"
        }
      ],
      "name": "tokenURI",
      "outputs": [
        {
          "name": "",
          "type": "string"
        }
      ],
      "payable": false,
      "stateMutability": "view",
      "type": "function"
    },
    {
      "constant": true,
      "inputs": [
        {
          "name": "_owner",
          "type": "address"
        },
        {
          "name": "_operator",
          "type": "address"
        }
      ],
      "name": "isApprovedForAll",
      "outputs": [
        {
          "name": "",
          "type": "bool"
        }
      ],
      "payable": false,
      "stateMutability": "view",
      "type": "function"
    },
    {
      "constant": true,
      "inputs": [],
      "name": "uriBase",
      "outputs": [
        {
          "name": "",
          "type": "bytes"
        }
      ],
      "payable": false,
      "stateMutability": "view",
      "type": "function"
    },
    {
      "inputs": [
        {
          "name": "_name",
          "type": "string"
        },
        {
          "name": "_symbol",
          "type": "string"
        },
        {
          "name": "_uriBase",
          "type": "string"
        }
      ],
      "payable": false,
      "stateMutability": "nonpayable",
      "type": "constructor"
    },
    {
      "anonymous": false,
      "inputs": [
        {
          "indexed": true,
          "name": "_from",
          "type": "address"
        },
        {
          "indexed": true,
          "name": "_to",
          "type": "address"
        },
        {
          "indexed": true,
          "name": "_tokenId",
          "type": "uint256"
        }
      ],
      "name": "Transfer",
      "type": "event"
    },
    {
      "anonymous": false,
      "inputs": [
        {
          "indexed": true,
          "name": "_owner",
          "type": "address"
        },
        {
          "indexed": true,
          "name": "_approved",
          "type": "address"
        },
        {
          "indexed": true,
          "name": "_tokenId",
          "type": "uint256"
        }
      ],
      "name": "Approval",
      "type": "event"
    },
    {
      "anonymous": false,
      "inputs": [
        {
          "indexed": true,
          "name": "_owner",
          "type": "address"
        },
        {
          "indexed": true,
          "name": "_operator",
          "type": "address"
        },
        {
          "indexed": false,
          "name": "_approved",
          "type": "bool"
        }
      ],
      "name": "ApprovalForAll",
      "type": "event"
    },
    {
      "constant": true,
      "inputs": [
        {
          "name": "_tokenId",
          "type": "uint256"
        }
      ],
      "name": "concatenateUri",
      "outputs": [
        {
          "name": "",
          "type": "string"
        }
      ],
      "payable": false,
      "stateMutability": "view",
      "type": "function"
    },
    {
      "constant": false,
      "inputs": [
        {
          "name": "_to",
          "type": "address"
        }
      ],
      "name": "mint",
      "outputs": [
        {
          "name": "",
          "type": "bool"
        }
      ],
      "payable": false,
      "stateMutability": "nonpayable",
      "type": "function"
    },
    {
      "constant": false,
      "inputs": [
        {
          "name": "_tokenId",
          "type": "uint256"
        }
      ],
      "name": "burn",
      "outputs": [
        {
          "name": "",
          "type": "bool"
        }
      ],
      "payable": false,
      "stateMutability": "nonpayable",
      "type": "function"
    },
    {
      "constant": true,
      "inputs": [
        {
          "name": "_owner",
          "type": "address"
        }
      ],
      "name": "getOwnerTokens",
      "outputs": [
        {
          "name": "",
          "type": "uint256[]"
        }
      ],
      "payable": false,
      "stateMutability": "view",
      "type": "function"
    }
  ],
  "bytecode": "0x60806040523480156200001157600080fd5b506040516200349c3803806200349c833981018060405281019080805182019291906020018051820192919060200180518201929190505050600083836200008b6301ffc9a77c0100000000000000000000000000000000000000000000000000000000026200024f640100000000026401000000009004565b620000c86380ac58cd7c0100000000000000000000000000000000000000000000000000000000026200024f640100000000026401000000009004565b62000105634f558e797c0100000000000000000000000000000000000000000000000000000000026200024f640100000000026401000000009004565b81600590805190602001906200011d92919062000b6b565b5080600690805190602001906200013692919062000b6b565b506200017463780e9d637c0100000000000000000000000000000000000000000000000000000000026200024f640100000000026401000000009004565b620001b1635b5e139f7c0100000000000000000000000000000000000000000000000000000000026200024f640100000000026401000000009004565b505033600c60006101000a81548173ffffffffffffffffffffffffffffffffffffffff021916908373ffffffffffffffffffffffffffffffffffffffff16021790555081600d90805190602001906200020c92919062000bf2565b50600090505b600a811015620002455762000236336200030d640100000000026401000000009004565b50808060010191505062000212565b5050505062000ca1565b63ffffffff7c010000000000000000000000000000000000000000000000000000000002817bffffffffffffffffffffffffffffffffffffffffffffffffffffffff191614151515620002a157600080fd5b6001600080837bffffffffffffffffffffffffffffffffffffffffffffffffffffffff19167bffffffffffffffffffffffffffffffffffffffffffffffffffffffff1916815260200190815260200160002060006101000a81548160ff02191690831515021790555050565b600080600c60009054906101000a900473ffffffffffffffffffffffffffffffffffffffff1673ffffffffffffffffffffffffffffffffffffffff163373ffffffffffffffffffffffffffffffffffffffff161415156200036d57600080fd5b62000386620003e1640100000000026401000000009004565b9050620003a38382620003ee640100000000026401000000009004565b620003d781620003c2836200045b640100000000026401000000009004565b62000761640100000000026401000000009004565b6001915050919050565b6000600980549050905090565b6200040e8282620007b564010000000002620025d1176401000000009004565b600980549050600a60008381526020019081526020016000208190555060098190806001815401808255809150509060018203906000526020600020016000909192909190915055505050565b60606000606060008060606000604e9550856040519080825280601f01601f191660200182016040528015620004a05781602001602082028038833980820191505090505b509450600093505b6000881415156200055a57600a88811515620004c057fe5b069250620004e7600a896200086d64010000000002620022a5179091906401000000009004565b9750826030017f01000000000000000000000000000000000000000000000000000000000000000285858060010196508151811015156200052457fe5b9060200101907effffffffffffffffffffffffffffffffffffffffffffffffffffffffffffff1916908160001a905350620004a8565b83600d805460018160011615610100020316600290049050016040519080825280601f01601f191660200182016040528015620005a65781602001602082028038833980820191505090505b509150600090505b600d8054600181600116156101000203166002900490508110156200068157600d818154600181600116156101000203166002900481101515620005ee57fe5b8154600116156200060e5790600052602060002090602091828204019190065b9054901a7f01000000000000000000000000000000000000000000000000000000000000000282828151811015156200064357fe5b9060200101907effffffffffffffffffffffffffffffffffffffffffffffffffffffffffffff1916908160001a9053508080600101915050620005ae565b600090505b83811015620007535784816001860303815181101515620006a357fe5b9060200101517f010000000000000000000000000000000000000000000000000000000000000090047f01000000000000000000000000000000000000000000000000000000000000000282600d80546001816001161561010002031660029004905083018151811015156200071557fe5b9060200101907effffffffffffffffffffffffffffffffffffffffffffffffffffffffffffff1916908160001a905350808060010191505062000686565b819650505050505050919050565b6200077b8262000884640100000000026401000000009004565b15156200078757600080fd5b80600b60008481526020019081526020016000209080519060200190620007b092919062000b6b565b505050565b600073ffffffffffffffffffffffffffffffffffffffff168273ffffffffffffffffffffffffffffffffffffffff1614151515620007f257600080fd5b6200080d8282620008f6640100000000026401000000009004565b808273ffffffffffffffffffffffffffffffffffffffff16600073ffffffffffffffffffffffffffffffffffffffff167fddf252ad1be2c89b69c2b068fc378daa952ba7f163c4a11628f55a4df523b3ef60405160405180910390a45050565b600081838115156200087b57fe5b04905092915050565b6000806001600084815260200190815260200160002060009054906101000a900473ffffffffffffffffffffffffffffffffffffffff169050600073ffffffffffffffffffffffffffffffffffffffff168173ffffffffffffffffffffffffffffffffffffffff161415915050919050565b6000620009188383620009e36401000000000262002403176401000000009004565b600760008473ffffffffffffffffffffffffffffffffffffffff1673ffffffffffffffffffffffffffffffffffffffff168152602001908152602001600020805490509050600760008473ffffffffffffffffffffffffffffffffffffffff1673ffffffffffffffffffffffffffffffffffffffff168152602001908152602001600020829080600181540180825580915050906001820390600052602060002001600090919290919091505550806008600084815260200190815260200160002081905550505050565b600073ffffffffffffffffffffffffffffffffffffffff166001600083815260200190815260200160002060009054906101000a900473ffffffffffffffffffffffffffffffffffffffff1673ffffffffffffffffffffffffffffffffffffffff1614151562000a5257600080fd5b816001600083815260200190815260200160002060006101000a81548173ffffffffffffffffffffffffffffffffffffffff021916908373ffffffffffffffffffffffffffffffffffffffff16021790555062000b076001600360008573ffffffffffffffffffffffffffffffffffffffff1673ffffffffffffffffffffffffffffffffffffffff1681526020019081526020016000205462000b4e640100000000026200268a179091906401000000009004565b600360008473ffffffffffffffffffffffffffffffffffffffff1673ffffffffffffffffffffffffffffffffffffffff168152602001908152602001600020819055505050565b6000818301905082811015151562000b6257fe5b80905092915050565b828054600181600116156101000203166002900490600052602060002090601f016020900481019282601f1062000bae57805160ff191683800117855562000bdf565b8280016001018555821562000bdf579182015b8281111562000bde57825182559160200191906001019062000bc1565b5b50905062000bee919062000c79565b5090565b828054600181600116156101000203166002900490600052602060002090601f016020900481019282601f1062000c3557805160ff191683800117855562000c66565b8280016001018555821562000c66579182015b8281111562000c6557825182559160200191906001019062000c48565b5b50905062000c75919062000c79565b5090565b62000c9e91905b8082111562000c9a57600081600090555060010162000c80565b5090565b90565b6127eb8062000cb16000396000f30060806040526004361061013e576000357c0100000000000000000000000000000000000000000000000000000000900463ffffffff16806301ffc9a71461014357806302d05d3f146101a757806306fdde03146101fe578063081812fc1461028e578063095ea7b3146102fb57806318160ddd1461034857806319fa8f501461037357806323b872dd146103dc5780632f745c591461044957806342842e0e146104aa57806342966c68146105175780634f558e791461055c5780634f6ccce7146105a15780636352211e146105e25780636a6278421461064f57806370a08231146106aa57806395d89b4114610701578063a22cb46514610791578063b88d4fde146107e0578063c650856414610893578063c87b56dd14610939578063d63d4af0146109df578063e985e9c514610a77578063fbca0ce114610af2575b600080fd5b34801561014f57600080fd5b5061018d60048036038101908080357bffffffffffffffffffffffffffffffffffffffffffffffffffffffff19169060200190929190505050610b82565b604051808215151515815260200191505060405180910390f35b3480156101b357600080fd5b506101bc610be9565b604051808273ffffffffffffffffffffffffffffffffffffffff1673ffffffffffffffffffffffffffffffffffffffff16815260200191505060405180910390f35b34801561020a57600080fd5b50610213610c0f565b6040518080602001828103825283818151815260200191508051906020019080838360005b83811015610253578082015181840152602081019050610238565b50505050905090810190601f1680156102805780820380516001836020036101000a031916815260200191505b509250505060405180910390f35b34801561029a57600080fd5b506102b960048036038101908080359060200190929190505050610cb1565b604051808273ffffffffffffffffffffffffffffffffffffffff1673ffffffffffffffffffffffffffffffffffffffff16815260200191505060405180910390f35b34801561030757600080fd5b50610346600480360381019080803573ffffffffffffffffffffffffffffffffffffffff16906020019092919080359060200190929190505050610cee565b005b34801561035457600080fd5b5061035d610e33565b6040518082815260200191505060405180910390f35b34801561037f57600080fd5b50610388610e40565b60405180827bffffffffffffffffffffffffffffffffffffffffffffffffffffffff19167bffffffffffffffffffffffffffffffffffffffffffffffffffffffff1916815260200191505060405180910390f35b3480156103e857600080fd5b50610447600480360381019080803573ffffffffffffffffffffffffffffffffffffffff169060200190929190803573ffffffffffffffffffffffffffffffffffffffff16906020019092919080359060200190929190505050610e67565b005b34801561045557600080fd5b50610494600480360381019080803573ffffffffffffffffffffffffffffffffffffffff16906020019092919080359060200190929190505050610f74565b6040518082815260200191505060405180910390f35b3480156104b657600080fd5b50610515600480360381019080803573ffffffffffffffffffffffffffffffffffffffff169060200190929190803573ffffffffffffffffffffffffffffffffffffffff16906020019092919080359060200190929190505050610feb565b005b34801561052357600080fd5b5061054260048036038101908080359060200190929190505050611023565b604051808215151515815260200191505060405180910390f35b34801561056857600080fd5b506105876004803603810190808035906020019092919050505061105c565b604051808215151515815260200191505060405180910390f35b3480156105ad57600080fd5b506105cc600480360381019080803590602001909291905050506110ce565b6040518082815260200191505060405180910390f35b3480156105ee57600080fd5b5061060d60048036038101908080359060200190929190505050611106565b604051808273ffffffffffffffffffffffffffffffffffffffff1673ffffffffffffffffffffffffffffffffffffffff16815260200191505060405180910390f35b34801561065b57600080fd5b50610690600480360381019080803573ffffffffffffffffffffffffffffffffffffffff169060200190929190505050611184565b604051808215151515815260200191505060405180910390f35b3480156106b657600080fd5b506106eb600480360381019080803573ffffffffffffffffffffffffffffffffffffffff169060200190929190505050611213565b6040518082815260200191505060405180910390f35b34801561070d57600080fd5b50610716611297565b6040518080602001828103825283818151815260200191508051906020019080838360005b8381101561075657808201518184015260208101905061073b565b50505050905090810190601f1680156107835780820380516001836020036101000a031916815260200191505b509250505060405180910390f35b34801561079d57600080fd5b506107de600480360381019080803573ffffffffffffffffffffffffffffffffffffffff169060200190929190803515159060200190929190505050611339565b005b3480156107ec57600080fd5b50610891600480360381019080803573ffffffffffffffffffffffffffffffffffffffff169060200190929190803573ffffffffffffffffffffffffffffffffffffffff16906020019092919080359060200190929190803590602001908201803590602001908080601f0160208091040260200160405190810160405280939291908181526020018383808284378201915050505050509192919290505050611475565b005b34801561089f57600080fd5b506108be600480360381019080803590602001909291905050506114b4565b6040518080602001828103825283818151815260200191508051906020019080838360005b838110156108fe5780820151818401526020810190506108e3565b50505050905090810190601f16801561092b5780820380516001836020036101000a031916815260200191505b509250505060405180910390f35b34801561094557600080fd5b506109646004803603810190808035906020019092919050505061179b565b6040518080602001828103825283818151815260200191508051906020019080838360005b838110156109a4578082015181840152602081019050610989565b50505050905090810190601f1680156109d15780820380516001836020036101000a031916815260200191505b509250505060405180910390f35b3480156109eb57600080fd5b50610a20600480360381019080803573ffffffffffffffffffffffffffffffffffffffff169060200190929190505050611864565b6040518080602001828103825283818151815260200191508051906020019060200280838360005b83811015610a63578082015181840152602081019050610a48565b505050509050019250505060405180910390f35b348015610a8357600080fd5b50610ad8600480360381019080803573ffffffffffffffffffffffffffffffffffffffff169060200190929190803573ffffffffffffffffffffffffffffffffffffffff1690602001909291905050506118fb565b604051808215151515815260200191505060405180910390f35b348015610afe57600080fd5b50610b0761198f565b6040518080602001828103825283818151815260200191508051906020019080838360005b83811015610b47578082015181840152602081019050610b2c565b50505050905090810190601f168015610b745780820380516001836020036101000a031916815260200191505b509250505060405180910390f35b6000806000837bffffffffffffffffffffffffffffffffffffffffffffffffffffffff19167bffffffffffffffffffffffffffffffffffffffffffffffffffffffff1916815260200190815260200160002060009054906101000a900460ff169050919050565b600c60009054906101000a900473ffffffffffffffffffffffffffffffffffffffff1681565b606060058054600181600116156101000203166002900480601f016020809104026020016040519081016040528092919081815260200182805460018160011615610100020316600290048015610ca75780601f10610c7c57610100808354040283529160200191610ca7565b820191906000526020600020905b815481529060010190602001808311610c8a57829003601f168201915b5050505050905090565b60006002600083815260200190815260200160002060009054906101000a900473ffffffffffffffffffffffffffffffffffffffff169050919050565b6000610cf982611106565b90508073ffffffffffffffffffffffffffffffffffffffff168373ffffffffffffffffffffffffffffffffffffffff1614151515610d3657600080fd5b8073ffffffffffffffffffffffffffffffffffffffff163373ffffffffffffffffffffffffffffffffffffffff161480610d765750610d7581336118fb565b5b1515610d8157600080fd5b826002600084815260200190815260200160002060006101000a81548173ffffffffffffffffffffffffffffffffffffffff021916908373ffffffffffffffffffffffffffffffffffffffff160217905550818373ffffffffffffffffffffffffffffffffffffffff168273ffffffffffffffffffffffffffffffffffffffff167f8c5be1e5ebec7d5bd14f71427d1e84f3dd0314c0f7b2291e5b200ac8c7c3b92560405160405180910390a4505050565b6000600980549050905090565b6301ffc9a77c01000000000000000000000000000000000000000000000000000000000281565b80610e723382611a2d565b1515610e7d57600080fd5b600073ffffffffffffffffffffffffffffffffffffffff168473ffffffffffffffffffffffffffffffffffffffff1614151515610eb957600080fd5b600073ffffffffffffffffffffffffffffffffffffffff168373ffffffffffffffffffffffffffffffffffffffff1614151515610ef557600080fd5b610eff8483611ac2565b610f098483611bc5565b610f138383611ddd565b818373ffffffffffffffffffffffffffffffffffffffff168573ffffffffffffffffffffffffffffffffffffffff167fddf252ad1be2c89b69c2b068fc378daa952ba7f163c4a11628f55a4df523b3ef60405160405180910390a450505050565b6000610f7f83611213565b82101515610f8c57600080fd5b600760008473ffffffffffffffffffffffffffffffffffffffff1673ffffffffffffffffffffffffffffffffffffffff16815260200190815260200160002082815481101515610fd857fe5b9060005260206000200154905092915050565b80610ff63382611a2d565b151561100157600080fd5b61101d8484846020604051908101604052806000815250611475565b50505050565b600080826110313382611a2d565b151561103c57600080fd5b61104584611106565b91506110518285611eb4565b600192505050919050565b6000806001600084815260200190815260200160002060009054906101000a900473ffffffffffffffffffffffffffffffffffffffff169050600073ffffffffffffffffffffffffffffffffffffffff168173ffffffffffffffffffffffffffffffffffffffff161415915050919050565b60006110d8610e33565b821015156110e557600080fd5b6009828154811015156110f457fe5b90600052602060002001549050919050565b6000806001600084815260200190815260200160002060009054906101000a900473ffffffffffffffffffffffffffffffffffffffff169050600073ffffffffffffffffffffffffffffffffffffffff168173ffffffffffffffffffffffffffffffffffffffff161415151561117b57600080fd5b80915050919050565b600080600c60009054906101000a900473ffffffffffffffffffffffffffffffffffffffff1673ffffffffffffffffffffffffffffffffffffffff163373ffffffffffffffffffffffffffffffffffffffff161415156111e357600080fd5b6111eb610e33565b90506111f78382611fec565b61120981611204836114b4565b612043565b6001915050919050565b60008073ffffffffffffffffffffffffffffffffffffffff168273ffffffffffffffffffffffffffffffffffffffff161415151561125057600080fd5b600360008373ffffffffffffffffffffffffffffffffffffffff1673ffffffffffffffffffffffffffffffffffffffff168152602001908152602001600020549050919050565b606060068054600181600116156101000203166002900480601f01602080910402602001604051908101604052809291908181526020018280546001816001161561010002031660029004801561132f5780601f106113045761010080835404028352916020019161132f565b820191906000526020600020905b81548152906001019060200180831161131257829003601f168201915b5050505050905090565b3373ffffffffffffffffffffffffffffffffffffffff168273ffffffffffffffffffffffffffffffffffffffff161415151561137457600080fd5b80600460003373ffffffffffffffffffffffffffffffffffffffff1673ffffffffffffffffffffffffffffffffffffffff16815260200190815260200160002060008473ffffffffffffffffffffffffffffffffffffffff1673ffffffffffffffffffffffffffffffffffffffff16815260200190815260200160002060006101000a81548160ff0219169083151502179055508173ffffffffffffffffffffffffffffffffffffffff163373ffffffffffffffffffffffffffffffffffffffff167f17307eab39ab6107e8899845ad3d59bd9653f200f220920489ca2b5937696c3183604051808215151515815260200191505060405180910390a35050565b816114803382611a2d565b151561148b57600080fd5b611496858585610e67565b6114a285858585612083565b15156114ad57600080fd5b5050505050565b60606000606060008060606000604e9550856040519080825280601f01601f1916602001820160405280156114f85781602001602082028038833980820191505090505b509450600093505b60008814151561159e57600a8881151561151657fe5b06925061152d600a896122a590919063ffffffff16565b9750826030017f010000000000000000000000000000000000000000000000000000000000000002858580600101965081518110151561156957fe5b9060200101907effffffffffffffffffffffffffffffffffffffffffffffffffffffffffffff1916908160001a905350611500565b83600d805460018160011615610100020316600290049050016040519080825280601f01601f1916602001820160405280156115e95781602001602082028038833980820191505090505b509150600090505b600d8054600181600116156101000203166002900490508110156116bf57600d81815460018160011615610100020316600290048110151561162f57fe5b81546001161561164e5790600052602060002090602091828204019190065b9054901a7f010000000000000000000000000000000000000000000000000000000000000002828281518110151561168257fe5b9060200101907effffffffffffffffffffffffffffffffffffffffffffffffffffffffffffff1916908160001a90535080806001019150506115f1565b600090505b8381101561178d57848160018603038151811015156116df57fe5b9060200101517f010000000000000000000000000000000000000000000000000000000000000090047f01000000000000000000000000000000000000000000000000000000000000000282600d805460018160011615610100020316600290049050830181518110151561175057fe5b9060200101907effffffffffffffffffffffffffffffffffffffffffffffffffffffffffffff1916908160001a90535080806001019150506116c4565b819650505050505050919050565b60606117a68261105c565b15156117b157600080fd5b600b60008381526020019081526020016000208054600181600116156101000203166002900480601f0160208091040260200160405190810160405280929190818152602001828054600181600116156101000203166002900480156118585780601f1061182d57610100808354040283529160200191611858565b820191906000526020600020905b81548152906001019060200180831161183b57829003601f168201915b50505050509050919050565b6060600760008373ffffffffffffffffffffffffffffffffffffffff1673ffffffffffffffffffffffffffffffffffffffff1681526020019081526020016000208054806020026020016040519081016040528092919081815260200182805480156118ef57602002820191906000526020600020905b8154815260200190600101908083116118db575b50505050509050919050565b6000600460008473ffffffffffffffffffffffffffffffffffffffff1673ffffffffffffffffffffffffffffffffffffffff16815260200190815260200160002060008373ffffffffffffffffffffffffffffffffffffffff1673ffffffffffffffffffffffffffffffffffffffff16815260200190815260200160002060009054906101000a900460ff16905092915050565b600d8054600181600116156101000203166002900480601f016020809104026020016040519081016040528092919081815260200182805460018160011615610100020316600290048015611a255780601f106119fa57610100808354040283529160200191611a25565b820191906000526020600020905b815481529060010190602001808311611a0857829003601f168201915b505050505081565b600080611a3983611106565b90508073ffffffffffffffffffffffffffffffffffffffff168473ffffffffffffffffffffffffffffffffffffffff161480611aa857508373ffffffffffffffffffffffffffffffffffffffff16611a9084610cb1565b73ffffffffffffffffffffffffffffffffffffffff16145b80611ab95750611ab881856118fb565b5b91505092915050565b8173ffffffffffffffffffffffffffffffffffffffff16611ae282611106565b73ffffffffffffffffffffffffffffffffffffffff16141515611b0457600080fd5b600073ffffffffffffffffffffffffffffffffffffffff166002600083815260200190815260200160002060009054906101000a900473ffffffffffffffffffffffffffffffffffffffff1673ffffffffffffffffffffffffffffffffffffffff16141515611bc15760006002600083815260200190815260200160002060006101000a81548173ffffffffffffffffffffffffffffffffffffffff021916908373ffffffffffffffffffffffffffffffffffffffff1602179055505b5050565b6000806000611bd485856122bb565b60086000858152602001908152602001600020549250611c406001600760008873ffffffffffffffffffffffffffffffffffffffff1673ffffffffffffffffffffffffffffffffffffffff168152602001908152602001600020805490506123ea90919063ffffffff16565b9150600760008673ffffffffffffffffffffffffffffffffffffffff1673ffffffffffffffffffffffffffffffffffffffff16815260200190815260200160002082815481101515611c8e57fe5b9060005260206000200154905080600760008773ffffffffffffffffffffffffffffffffffffffff1673ffffffffffffffffffffffffffffffffffffffff16815260200190815260200160002084815481101515611ce857fe5b90600052602060002001819055506000600760008773ffffffffffffffffffffffffffffffffffffffff1673ffffffffffffffffffffffffffffffffffffffff16815260200190815260200160002083815481101515611d4457fe5b9060005260206000200181905550600760008673ffffffffffffffffffffffffffffffffffffffff1673ffffffffffffffffffffffffffffffffffffffff168152602001908152602001600020805480919060019003611da491906126a6565b50600060086000868152602001908152602001600020819055508260086000838152602001908152602001600020819055505050505050565b6000611de98383612403565b600760008473ffffffffffffffffffffffffffffffffffffffff1673ffffffffffffffffffffffffffffffffffffffff168152602001908152602001600020805490509050600760008473ffffffffffffffffffffffffffffffffffffffff1673ffffffffffffffffffffffffffffffffffffffff168152602001908152602001600020829080600181540180825580915050906001820390600052602060002001600090919290919091505550806008600084815260200190815260200160002081905550505050565b6000806000611ec3858561255d565b6000600b6000868152602001908152602001600020805460018160011615610100020316600290049050141515611f1457600b60008581526020019081526020016000206000611f1391906126d2565b5b600a6000858152602001908152602001600020549250611f4360016009805490506123ea90919063ffffffff16565b9150600982815481101515611f5457fe5b9060005260206000200154905080600984815481101515611f7157fe5b90600052602060002001819055506000600983815481101515611f9057fe5b90600052602060002001819055506009805480919060019003611fb391906126a6565b506000600a60008681526020019081526020016000208190555082600a6000838152602001908152602001600020819055505050505050565b611ff682826125d1565b600980549050600a60008381526020019081526020016000208190555060098190806001815401808255809150509060018203906000526020600020016000909192909190915055505050565b61204c8261105c565b151561205757600080fd5b80600b6000848152602001908152602001600020908051906020019061207e92919061271a565b505050565b6000806120a58573ffffffffffffffffffffffffffffffffffffffff16612677565b15156120b4576001915061229c565b8473ffffffffffffffffffffffffffffffffffffffff1663150b7a02338887876040518563ffffffff167c0100000000000000000000000000000000000000000000000000000000028152600401808573ffffffffffffffffffffffffffffffffffffffff1673ffffffffffffffffffffffffffffffffffffffff1681526020018473ffffffffffffffffffffffffffffffffffffffff1673ffffffffffffffffffffffffffffffffffffffff16815260200183815260200180602001828103825283818151815260200191508051906020019080838360005b838110156121a957808201518184015260208101905061218e565b50505050905090810190601f1680156121d65780820380516001836020036101000a031916815260200191505b5095505050505050602060405180830381600087803b1580156121f857600080fd5b505af115801561220c573d6000803e3d6000fd5b505050506040513d602081101561222257600080fd5b8101908080519060200190929190505050905063150b7a027c0100000000000000000000000000000000000000000000000000000000027bffffffffffffffffffffffffffffffffffffffffffffffffffffffff1916817bffffffffffffffffffffffffffffffffffffffffffffffffffffffff19161491505b50949350505050565b600081838115156122b257fe5b04905092915050565b8173ffffffffffffffffffffffffffffffffffffffff166122db82611106565b73ffffffffffffffffffffffffffffffffffffffff161415156122fd57600080fd5b6123506001600360008573ffffffffffffffffffffffffffffffffffffffff1673ffffffffffffffffffffffffffffffffffffffff168152602001908152602001600020546123ea90919063ffffffff16565b600360008473ffffffffffffffffffffffffffffffffffffffff1673ffffffffffffffffffffffffffffffffffffffff1681526020019081526020016000208190555060006001600083815260200190815260200160002060006101000a81548173ffffffffffffffffffffffffffffffffffffffff021916908373ffffffffffffffffffffffffffffffffffffffff1602179055505050565b60008282111515156123f857fe5b818303905092915050565b600073ffffffffffffffffffffffffffffffffffffffff166001600083815260200190815260200160002060009054906101000a900473ffffffffffffffffffffffffffffffffffffffff1673ffffffffffffffffffffffffffffffffffffffff1614151561247157600080fd5b816001600083815260200190815260200160002060006101000a81548173ffffffffffffffffffffffffffffffffffffffff021916908373ffffffffffffffffffffffffffffffffffffffff1602179055506125166001600360008573ffffffffffffffffffffffffffffffffffffffff1673ffffffffffffffffffffffffffffffffffffffff1681526020019081526020016000205461268a90919063ffffffff16565b600360008473ffffffffffffffffffffffffffffffffffffffff1673ffffffffffffffffffffffffffffffffffffffff168152602001908152602001600020819055505050565b6125678282611ac2565b6125718282611bc5565b80600073ffffffffffffffffffffffffffffffffffffffff168373ffffffffffffffffffffffffffffffffffffffff167fddf252ad1be2c89b69c2b068fc378daa952ba7f163c4a11628f55a4df523b3ef60405160405180910390a45050565b600073ffffffffffffffffffffffffffffffffffffffff168273ffffffffffffffffffffffffffffffffffffffff161415151561260d57600080fd5b6126178282611ddd565b808273ffffffffffffffffffffffffffffffffffffffff16600073ffffffffffffffffffffffffffffffffffffffff167fddf252ad1be2c89b69c2b068fc378daa952ba7f163c4a11628f55a4df523b3ef60405160405180910390a45050565b600080823b905060008111915050919050565b6000818301905082811015151561269d57fe5b80905092915050565b8154818355818111156126cd578183600052602060002091820191016126cc919061279a565b5b505050565b50805460018160011615610100020316600290046000825580601f106126f85750612717565b601f016020900490600052602060002090810190612716919061279a565b5b50565b828054600181600116156101000203166002900490600052602060002090601f016020900481019282601f1061275b57805160ff1916838001178555612789565b82800160010185558215612789579182015b8281111561278857825182559160200191906001019061276d565b5b509050612796919061279a565b5090565b6127bc91905b808211156127b85760008160009055506001016127a0565b5090565b905600a165627a7a72305820f4c69f577bf8e49b8f26b1ae2238afd0e9061b1a1252a71b34023fe2356318540029",
  "source": "pragma solidity ^0.4.24;\n\nimport \"openzeppelin-solidity/contracts/token/ERC721/ERC721Token.sol\";\n\n\ncontract PicsumToken is ERC721Token {\n  address public creator;\n  bytes public uriBase;\n\n  modifier onlyCreator() {\n    require(msg.sender == creator);\n\n    _;\n  }\n\n  constructor(\n    string _name,\n    string _symbol,\n    string _uriBase\n  ) \n    public\n    ERC721Token(_name, _symbol)\n  {\n    creator = msg.sender;\n    uriBase = bytes(_uriBase);\n    for (uint256 _i = 0; _i < 10; _i++) {\n      mint(msg.sender);\n    }\n  }\n\n  function concatenateUri(\n    uint256 _tokenId\n  )\n    public\n    view\n    returns (string)\n  {\n    // max length of 2^256 as a string\n    uint256 _maxLength = 78;\n    bytes memory _reversed = new bytes(_maxLength);\n    uint256 _i = 0;\n\n    while (_tokenId != 0) {\n      uint256 _remainder = _tokenId % 10;\n      _tokenId = _tokenId.div(10);\n      _reversed[_i++] = byte(48 + _remainder);\n    }\n\n    bytes memory _bytesString = new bytes(uriBase.length + _i);\n    uint256 _j;\n\n    for (_j = 0; _j < uriBase.length; _j++) {\n      _bytesString[_j] = uriBase[_j];\n    }\n\n    for (_j = 0; _j < _i; _j++) {\n      _bytesString[_j + uriBase.length] = _reversed[_i - 1 - _j];\n    }\n\n    return string(_bytesString);\n  }\n\n  function mint(\n    address _to\n  )\n    public\n    onlyCreator\n    returns (bool)\n  {\n    uint256 _newTokenId = totalSupply();\n    _mint(_to, _newTokenId);\n    _setTokenURI(_newTokenId, concatenateUri(_newTokenId));\n\n    return true;\n  }\n\n  function burn(\n    uint256 _tokenId\n  )\n    external\n    canTransfer(_tokenId)\n    returns (bool)\n  {\n    address _owner = ownerOf(_tokenId);\n    _burn(_owner, _tokenId);\n\n    return true;\n  }\n\n  function getOwnerTokens(\n    address _owner\n  )\n    external\n    view\n    returns (uint256[])\n  {\n    return ownedTokens[_owner];\n  }\n}",
  "sourcePath": "/Users/tovarishfin/dev/personal/picsumToken/contracts/PicsumToken.sol",
  "compiler": {
    "name": "solc",
    "version": "0.4.24+commit.e67f0147.Emscripten.clang"
  },
  "schemaVersion": "2.0.1",
  "updatedAt": "2018-08-05T18:32:22.461Z"
}